{
  "address": "0xb2eF98BB03a26fc7b46BEa6018800b654F932275",
  "abi": [
    {
      "inputs": [],
      "name": "FundsLock__AlreadyWithdrawn",
      "type": "error"
    },
    {
      "inputs": [],
      "name": "FundsLock__BalanceExceeded",
      "type": "error"
    },
    {
      "inputs": [],
      "name": "FundsLock__DepositNotForCaller",
      "type": "error"
    },
    {
      "inputs": [],
      "name": "FundsLock__DepositNotFound",
      "type": "error"
    },
    {
      "inputs": [],
      "name": "FundsLock__FundsStillLockUp",
      "type": "error"
    },
    {
      "inputs": [],
      "name": "FundsLock__FundsWithdrawFailed",
      "type": "error"
    },
    {
      "inputs": [],
      "name": "FundsLock__InsufficientFunds",
      "type": "error"
    },
    {
      "inputs": [],
      "name": "FundsLock__InsufficientFundsInReserve",
      "type": "error"
    },
    {
      "inputs": [],
      "name": "FundsLock__InvalidArgs",
      "type": "error"
    },
    {
      "inputs": [],
      "name": "FundsLock__ZeroValue",
      "type": "error"
    },
    {
      "anonymous": false,
      "inputs": [
        {
          "indexed": true,
          "internalType": "address",
          "name": "depositor",
          "type": "address"
        },
        {
          "indexed": true,
          "internalType": "uint256",
          "name": "amount",
          "type": "uint256"
        },
        {
          "indexed": true,
          "internalType": "uint256",
          "name": "duration",
          "type": "uint256"
        }
      ],
      "name": "FundsDeposited",
      "type": "event"
    },
    {
      "anonymous": false,
      "inputs": [
        {
          "indexed": true,
          "internalType": "address",
          "name": "depositor",
          "type": "address"
        },
        {
          "indexed": true,
          "internalType": "uint256[]",
          "name": "amount",
          "type": "uint256[]"
        },
        {
          "indexed": true,
          "internalType": "uint256[]",
          "name": "duration",
          "type": "uint256[]"
        }
      ],
      "name": "FundsDepositedWithInterval",
      "type": "event"
    },
    {
      "anonymous": false,
      "inputs": [
        {
          "indexed": true,
          "internalType": "bytes16",
          "name": "depositId",
          "type": "bytes16"
        },
        {
          "indexed": true,
          "internalType": "uint256",
          "name": "totalFunds",
          "type": "uint256"
        }
      ],
      "name": "FundsWithdrawn",
      "type": "event"
    },
    {
      "anonymous": false,
      "inputs": [
        {
          "indexed": true,
          "internalType": "uint256[]",
          "name": "durations",
          "type": "uint256[]"
        },
        {
          "indexed": true,
          "internalType": "uint256[]",
          "name": "interests",
          "type": "uint256[]"
        }
      ],
      "name": "InterestsSet",
      "type": "event"
    },
    {
      "anonymous": false,
      "inputs": [
        {
          "indexed": true,
          "internalType": "address",
          "name": "previousOwner",
          "type": "address"
        },
        {
          "indexed": true,
          "internalType": "address",
          "name": "newOwner",
          "type": "address"
        }
      ],
      "name": "OwnershipTransferred",
      "type": "event"
    },
    {
      "stateMutability": "payable",
      "type": "fallback"
    },
    {
      "inputs": [
        {
          "internalType": "uint256",
          "name": "duration",
          "type": "uint256"
        }
      ],
      "name": "depositFunds",
      "outputs": [],
      "stateMutability": "payable",
      "type": "function"
    },
    {
      "inputs": [
        {
          "internalType": "uint256[]",
          "name": "amount",
          "type": "uint256[]"
        },
        {
          "internalType": "uint256[]",
          "name": "duration",
          "type": "uint256[]"
        }
      ],
      "name": "depositFundsWithInterval",
      "outputs": [],
      "stateMutability": "payable",
      "type": "function"
    },
    {
      "inputs": [
        {
          "internalType": "uint256",
          "name": "amount",
          "type": "uint256"
        },
        {
          "internalType": "uint256",
          "name": "depositTime",
          "type": "uint256"
        }
      ],
      "name": "getInterest",
      "outputs": [
        {
          "internalType": "uint256",
          "name": "",
          "type": "uint256"
        }
      ],
      "stateMutability": "view",
      "type": "function"
    },
    {
      "inputs": [
        {
          "internalType": "uint256[]",
          "name": "amount",
          "type": "uint256[]"
        }
      ],
      "name": "getTotalAmount",
      "outputs": [
        {
          "internalType": "uint256",
          "name": "",
          "type": "uint256"
        }
      ],
      "stateMutability": "pure",
      "type": "function"
    },
    {
      "inputs": [
        {
          "internalType": "bytes16",
          "name": "depositId",
          "type": "bytes16"
        }
      ],
      "name": "getUserDeposit",
      "outputs": [
        {
          "components": [
            {
              "internalType": "address",
              "name": "depositor",
              "type": "address"
            },
            {
              "internalType": "uint256",
              "name": "amount",
              "type": "uint256"
            },
            {
              "internalType": "uint256",
              "name": "depositTime",
              "type": "uint256"
            },
            {
              "internalType": "uint256",
              "name": "duration",
              "type": "uint256"
            },
            {
              "internalType": "bool",
              "name": "claim",
              "type": "bool"
            },
            {
              "internalType": "bytes16",
              "name": "id",
              "type": "bytes16"
            }
          ],
          "internalType": "struct FundsLock.DepositInfo",
          "name": "",
          "type": "tuple"
        }
      ],
      "stateMutability": "view",
      "type": "function"
    },
    {
      "inputs": [
        {
          "internalType": "address",
          "name": "user",
          "type": "address"
        }
      ],
      "name": "getUserDepositIds",
      "outputs": [
        {
          "internalType": "bytes16[]",
          "name": "",
          "type": "bytes16[]"
        }
      ],
      "stateMutability": "view",
      "type": "function"
    },
    {
      "inputs": [],
      "name": "owner",
      "outputs": [
        {
          "internalType": "address",
          "name": "",
          "type": "address"
        }
      ],
      "stateMutability": "view",
      "type": "function"
    },
    {
      "inputs": [],
      "name": "renounceOwnership",
      "outputs": [],
      "stateMutability": "nonpayable",
      "type": "function"
    },
    {
      "inputs": [
        {
          "internalType": "uint256[]",
          "name": "durations",
          "type": "uint256[]"
        },
        {
          "internalType": "uint256[]",
          "name": "interests",
          "type": "uint256[]"
        }
      ],
      "name": "setInterests",
      "outputs": [],
      "stateMutability": "nonpayable",
      "type": "function"
    },
    {
      "inputs": [
        {
          "internalType": "address",
          "name": "newOwner",
          "type": "address"
        }
      ],
      "name": "transferOwnership",
      "outputs": [],
      "stateMutability": "nonpayable",
      "type": "function"
    },
    {
      "inputs": [
        {
          "internalType": "bytes16",
          "name": "depositId",
          "type": "bytes16"
        }
      ],
      "name": "withdrawFunds",
      "outputs": [],
      "stateMutability": "nonpayable",
      "type": "function"
    },
    {
      "stateMutability": "payable",
      "type": "receive"
    }
  ],
  "transactionHash": "0x7d227b091a9f013b07fcd6f00383de406f4e998f27f0a49f5c4a86bc4cbbb453",
  "args": [],
  "numDeployments": 1,
  "solcInputHash": "d051cdb734449a746620ee83f80dd617",
  "bytecode": "0x6080806040523461006357600160008181558154336001600160a01b0319821681179093556001600160a01b0316907f8be0079c531659141344cd1fd0a4f28419497f9722a3daafe3b4186f6b6457e09080a36000600755610fa990816100698239f35b600080fdfe60406080815260048036101561001c575b5050361561001a57005b005b600091823560e01c8063398ca5631461095e5780633b76594d146108065780634523b6991461062457806364ac6b0514610540578063715018a6146104e3578063728af7ec146104c05780638da5cb5b146104985780638f14fd8f146102e55780639cfb0b651461029e578063d4e4487d146101705763f2fde38b146100a25750610010565b3461016c57602036600319011261016c578135916001600160a01b0391828416809403610168576100d1610c5a565b8315610116575050600154826001600160601b0360a01b821617600155167f8be0079c531659141344cd1fd0a4f28419497f9722a3daafe3b4186f6b6457e08380a380f35b906020608492519162461bcd60e51b8352820152602660248201527f4f776e61626c653a206e6577206f776e657220697320746865207a65726f206160448201526564647265737360d01b6064820152fd5b8480fd5b8280fd5b5082903461029a576020928360031936011261016c5780356001600160a01b038116809103610296578352835280822081519182858354948581520192839086528686209186945b6001908782880110156101ef57908560029286546001600160801b031990818160801b168352168c820152019401950194926101b8565b89915061021f83838b938a8c8b9a549184828210610279575b5010610264575b5090509695949293960382610b85565b83519485948186019282875251809352850193925b82811061024357505050500390f35b83516001600160801b03191685528695509381019392810192600101610234565b6001600160801b03191681528591018961020f565b600191946001600160801b03198560801b16815201930184610208565b8380fd5b5080fd5b5082346102e25760203660031901126102e25782359067ffffffffffffffff82116102e257506102d66020936102db92369101610ba7565b610e50565b9051908152f35b80fd5b50826102f036610c13565b6102fb949194610d8c565b84518151036104895761030d85610e50565b3481116104795733311061046a57825b855181101561042957806103346104249288610cd7565b516103ad6103f1866103468588610cd7565b519361035133610def565b948b8b81519361036085610b53565b3385526001600160a01b036020938487019283528087019342855260608801968752608088019b818d5260a089019b8c916001600160801b031981168093523384528b8952848420610d3b565b81526002809652209551166001600160601b0360a01b86541617855551600185015551908301555160038201550192511515839060ff801983541691151516179055565b51610100600160881b0382549160781c1690610100600160881b031916179055600761041d8154610cb2565b9055610cb2565b61031d565b838261043d61043789610d01565b91610d01565b90337f1995e4394b50bf742631d70655948418b3a3ad2196b88ba5a57da8e9ed6142d48480a46001815580f35b5082516302d8c32d60e41b8152fd5b8451632b60691760e21b81528390fd5b508251630bdb43e360e31b8152fd5b83823461029a578160031936011261029a576020906001600160a01b03600154169051908152f35b5082346102e257816003193601126102e257506102db6020926024359035610e88565b83346102e257806003193601126102e2576104fc610c5a565b806001600160a01b036001546001600160601b0360a01b8116600155167f8be0079c531659141344cd1fd0a4f28419497f9722a3daafe3b4186f6b6457e08280a380f35b50903461016c57602036600319011261016c576001600160801b0319908035828116908190036101685784849160c09660a0845161057d81610b53565b8281528260208201528286820152826060820152826080820152015281526002602052208351906105ad82610b53565b6001600160a01b038154169485835260018201549360208401948552600283015490828501918252600384015493606086019485520154948660a0608087019660ff891615158852019660781b168652825197885251602088015251908601525160608501525115156080840152511660a0820152f35b503461016c5760209182600319360112610296578035916001600160801b031980841680940361080257610656610d8c565b838652600285528186209082519161066d83610b53565b6001600160a01b039182825416928385526001830154948981019586526002840154948782019586528860038601549560608401968752015493608083019460ff81161515865260781b1660a0830152156107f257511633036107e2575115156001146107d257815190516106e191610de2565b42106107c357906106f9610700928251905190610e88565b9051610de2565b938447106107b557838652600281528186208301805460ff191660011790558580808088335af1903d156107af573d9067ffffffffffffffff821161079c57879084519261075782601f19601f8401160185610b85565b83523d92013e5b156107905750507f7f80d638800da61b17140b7c9e0d5c5e4656816d29766c1b9da53303121fe7028380a36001815580f35b5162ec8b2360e21b8152fd5b634e487b7160e01b885260418552602488fd5b5061075e565b5051630381440960e31b8152fd5b505051636a2f42c160e01b8152fd5b50505051637bbc12f560e01b8152fd5b84516379db86d960e01b81528690fd5b8651636b0fc78560e11b81528890fd5b8580fd5b5090602036600319011261016c5780359161081f610d8c565b34158015610956575b610949573331341161093c576108e161084033610def565b92825161084c81610b53565b3381526020810134815284820142815260608301918883526001600160a01b03878b61089b608088019b828d5260a089019b8c936001600160801b031983168095523381528b60205220610d3b565b8c5260026020528b209451166001600160601b0360a01b8554161784555160018401555160028301555160038201550192511515839060ff801983541691151516179055565b51610100600160881b0382549160781c1690610100600160881b03191617905561090c600754610cb2565b60075534337fbee4fe3675934fca827426c793623996a3079255089bda3a717019ffc5db27658480a46001815580f35b516302d8c32d60e41b8152fd5b51637253b26960e01b8152fd5b508215610828565b5082346102e25761096e36610c13565b9092610978610c5a565b8351825103610b445750600591825481845580610b03575b50600690815481835580610ac2575b50805b8551811015610a8c576109b58187610cd7565b51855490600160401b9081831015610a6657600192838101808a55811015610a79578886527f036b6384b5eca791c62761152d0c79bb0604c104a5fb6f4eb0703f3154bb3db00155610a078387610cd7565b5191855491821015610a66578101808655811015610a53578484527ff652222313e28459528d920b65115c16c04f3efc82aaedc97be59f3f377c0d3f0155610a4e90610cb2565b6109a2565b634e487b7160e01b845260328952602484fd5b634e487b7160e01b855260418a52602485fd5b634e487b7160e01b865260328b52602486fd5b5082610a9a61043787610d01565b907f22d3e7e504d7d9700edc979095abbcfe7cd9fdfdbc848c8484b45cc1ccd86edc8380a380f35b8282527ff652222313e28459528d920b65115c16c04f3efc82aaedc97be59f3f377c0d3f908101905b818110610af8575061099f565b828155600101610aeb565b8382527f036b6384b5eca791c62761152d0c79bb0604c104a5fb6f4eb0703f3154bb3db0908101905b818110610b395750610990565b828155600101610b2c565b51630bdb43e360e31b81528490fd5b60c0810190811067ffffffffffffffff821117610b6f57604052565b634e487b7160e01b600052604160045260246000fd5b90601f8019910116810190811067ffffffffffffffff821117610b6f57604052565b9080601f83011215610c0e5781359067ffffffffffffffff8211610b6f578160051b60405193602093610bdc85840187610b85565b85528380860192820101928311610c0e578301905b828210610bff575050505090565b81358152908301908301610bf1565b600080fd5b906040600319830112610c0e5767ffffffffffffffff600435818111610c0e5783610c4091600401610ba7565b92602435918211610c0e57610c5791600401610ba7565b90565b6001600160a01b03600154163303610c6e57565b606460405162461bcd60e51b815260206004820152602060248201527f4f776e61626c653a2063616c6c6572206973206e6f7420746865206f776e65726044820152fd5b6000198114610cc15760010190565b634e487b7160e01b600052601160045260246000fd5b8051821015610ceb5760209160051b010190565b634e487b7160e01b600052603260045260246000fd5b60405190818183925160208092019160005b828110610d24575050505003902090565b835185528695509381019392810192600101610d13565b90815491600160401b831015610b6f5760018301808255831015610ceb5760005260206000208260011c0191608083549160071b16916001600160801b03831b92839160801c901b16911916179055565b600260005414610d9d576002600055565b60405162461bcd60e51b815260206004820152601f60248201527f5265656e7472616e637947756172643a207265656e7472616e742063616c6c006044820152606490fd5b91908201809211610cc157565b600754906040519160208301916001600160601b03199060601b1682526034830152426054830152600160f81b6074830152605582526080820182811067ffffffffffffffff821117610b6f57604052905190206001600160801b03191690565b600090815b8151831015610e8257610e76610e7c91610e6f8585610cd7565b5190610de2565b92610cb2565b91610e55565b91505090565b90420390428211610cc15760058054600093600019939192848401848111610f5f575b6000811215610ebe575b50505050505090565b84811015610ceb5781600052807f036b6384b5eca791c62761152d0c79bb0604c104a5fb6f4eb0703f3154bb3db00154831015610f0757600160ff1b8114610cc1578501610eab565b9450505092505060068054821015610ceb576000527ff652222313e28459528d920b65115c16c04f3efc82aaedc97be59f3f377c0d3f0154818102918183041490151715610cc1576127109004388080808080610eb5565b634e487b7160e01b87526011600452602487fdfea26469706673582212207e46f00b8780b3a2a80794358fa8b3d787ef43392f6ae80994e7a9af3747178664736f6c63430008110033",
  "devdoc": {
    "kind": "dev",
    "methods": {
      "depositFunds(uint256)": {
        "params": {
          "duration": "This specifies how long the funds should be locked in the contract (in seconds)"
        }
      },
      "depositFundsWithInterval(uint256[],uint256[])": {
        "params": {
          "amount": "This is an array of the amount to deposit",
          "duration": "This is an array of the withdrawal intervals (in seconds)"
        }
      },
      "getInterest(uint256,uint256)": {
        "params": {
          "amount": "This specifies the amount to calculate interest on",
          "depositTime": "This specifies the time the amount was deposited"
        },
        "returns": {
          "_0": "the interest"
        }
      },
      "getTotalAmount(uint256[])": {
        "params": {
          "amount": "This is an array of the amounts to be accumulated"
        },
        "returns": {
          "_0": "uint256 The accumulated value is returned"
        }
      },
      "getUserDeposit(bytes16)": {
        "params": {
          "depositId": "This is the ID that the details needs to be obtained"
        },
        "returns": {
          "_0": "the details of the deposited funds"
        }
      },
      "getUserDepositIds(address)": {
        "params": {
          "user": "This specifies the user that needs to obtain the ids"
        },
        "returns": {
          "_0": "an array of all the ids"
        }
      },
      "owner()": {
        "details": "Returns the address of the current owner."
      },
      "renounceOwnership()": {
        "details": "Leaves the contract without owner. It will not be possible to call `onlyOwner` functions. Can only be called by the current owner. NOTE: Renouncing ownership will leave the contract without an owner, thereby disabling any functionality that is only available to the owner."
      },
      "setInterests(uint256[],uint256[])": {
        "params": {
          "durations": "This is an array of the durations (in seconds)",
          "interests": "This is an array of the interests (every percentage is multiplied by 100 for better precision) "
        }
      },
      "transferOwnership(address)": {
        "details": "Transfers ownership of the contract to a new account (`newOwner`). Can only be called by the current owner."
      },
      "withdrawFunds(bytes16)": {
        "params": {
          "depositId": "This is a uniqueId that specifies the funds to be withdrawn. Every deposited funds have their unique Id"
        }
      }
    },
    "version": 1
  },
  "userdoc": {
    "kind": "user",
    "methods": {
      "depositFunds(uint256)": {
        "notice": "A function that users call to deposit funds (ETH) into the contract."
      },
      "depositFundsWithInterval(uint256[],uint256[])": {
        "notice": "A function that allows users to set multiple withdrawal intervals for different portions of their deposited funds"
      },
      "getInterest(uint256,uint256)": {
        "notice": "Calculates interest based on the amount and the time it was deposited"
      },
      "getTotalAmount(uint256[])": {
        "notice": "This function returns the accumulation of all the amount passed in the array"
      },
      "getUserDeposit(bytes16)": {
        "notice": "Gets the details of a deposit specified by the depositId"
      },
      "getUserDepositIds(address)": {
        "notice": "Gets all the ids of the deposited funds of the user"
      },
      "setInterests(uint256[],uint256[])": {
        "notice": "A function that sets the duration and its corresponding interest. Only the owner can call this function"
      },
      "withdrawFunds(bytes16)": {
        "notice": "This is a function called by the users to withdraw their deposited funds."
      }
    },
    "version": 1
  },
  "storageLayout": {
    "storage": [
      {
        "astId": 123,
        "contract": "contracts/FundsLock.sol:FundsLock",
        "label": "_status",
        "offset": 0,
        "slot": "0",
        "type": "t_uint256"
      },
      {
        "astId": 7,
        "contract": "contracts/FundsLock.sol:FundsLock",
        "label": "_owner",
        "offset": 0,
        "slot": "1",
        "type": "t_address"
      },
      {
        "astId": 277,
        "contract": "contracts/FundsLock.sol:FundsLock",
        "label": "s_userFunds",
        "offset": 0,
        "slot": "2",
        "type": "t_mapping(t_bytes16,t_struct(DepositInfo)272_storage)"
      },
      {
        "astId": 281,
        "contract": "contracts/FundsLock.sol:FundsLock",
        "label": "s_durationToInterest",
        "offset": 0,
        "slot": "3",
        "type": "t_mapping(t_uint256,t_uint256)"
      },
      {
        "astId": 286,
        "contract": "contracts/FundsLock.sol:FundsLock",
        "label": "s_allUserDeposits",
        "offset": 0,
        "slot": "4",
        "type": "t_mapping(t_address,t_array(t_bytes16)dyn_storage)"
      },
      {
        "astId": 289,
        "contract": "contracts/FundsLock.sol:FundsLock",
        "label": "s_durations",
        "offset": 0,
        "slot": "5",
        "type": "t_array(t_uint256)dyn_storage"
      },
      {
        "astId": 292,
        "contract": "contracts/FundsLock.sol:FundsLock",
        "label": "s_interestPercentages",
        "offset": 0,
        "slot": "6",
        "type": "t_array(t_uint256)dyn_storage"
      },
      {
        "astId": 295,
        "contract": "contracts/FundsLock.sol:FundsLock",
        "label": "s_idGenerator",
        "offset": 0,
        "slot": "7",
        "type": "t_uint256"
      }
    ],
    "types": {
      "t_address": {
        "encoding": "inplace",
        "label": "address",
        "numberOfBytes": "20"
      },
      "t_array(t_bytes16)dyn_storage": {
        "base": "t_bytes16",
        "encoding": "dynamic_array",
        "label": "bytes16[]",
        "numberOfBytes": "32"
      },
      "t_array(t_uint256)dyn_storage": {
        "base": "t_uint256",
        "encoding": "dynamic_array",
        "label": "uint256[]",
        "numberOfBytes": "32"
      },
      "t_bool": {
        "encoding": "inplace",
        "label": "bool",
        "numberOfBytes": "1"
      },
      "t_bytes16": {
        "encoding": "inplace",
        "label": "bytes16",
        "numberOfBytes": "16"
      },
      "t_mapping(t_address,t_array(t_bytes16)dyn_storage)": {
        "encoding": "mapping",
        "key": "t_address",
        "label": "mapping(address => bytes16[])",
        "numberOfBytes": "32",
        "value": "t_array(t_bytes16)dyn_storage"
      },
      "t_mapping(t_bytes16,t_struct(DepositInfo)272_storage)": {
        "encoding": "mapping",
        "key": "t_bytes16",
        "label": "mapping(bytes16 => struct FundsLock.DepositInfo)",
        "numberOfBytes": "32",
        "value": "t_struct(DepositInfo)272_storage"
      },
      "t_mapping(t_uint256,t_uint256)": {
        "encoding": "mapping",
        "key": "t_uint256",
        "label": "mapping(uint256 => uint256)",
        "numberOfBytes": "32",
        "value": "t_uint256"
      },
      "t_struct(DepositInfo)272_storage": {
        "encoding": "inplace",
        "label": "struct FundsLock.DepositInfo",
        "members": [
          {
            "astId": 261,
            "contract": "contracts/FundsLock.sol:FundsLock",
            "label": "depositor",
            "offset": 0,
            "slot": "0",
            "type": "t_address"
          },
          {
            "astId": 263,
            "contract": "contracts/FundsLock.sol:FundsLock",
            "label": "amount",
            "offset": 0,
            "slot": "1",
            "type": "t_uint256"
          },
          {
            "astId": 265,
            "contract": "contracts/FundsLock.sol:FundsLock",
            "label": "depositTime",
            "offset": 0,
            "slot": "2",
            "type": "t_uint256"
          },
          {
            "astId": 267,
            "contract": "contracts/FundsLock.sol:FundsLock",
            "label": "duration",
            "offset": 0,
            "slot": "3",
            "type": "t_uint256"
          },
          {
            "astId": 269,
            "contract": "contracts/FundsLock.sol:FundsLock",
            "label": "claim",
            "offset": 0,
            "slot": "4",
            "type": "t_bool"
          },
          {
            "astId": 271,
            "contract": "contracts/FundsLock.sol:FundsLock",
            "label": "id",
            "offset": 1,
            "slot": "4",
            "type": "t_bytes16"
          }
        ],
        "numberOfBytes": "160"
      },
      "t_uint256": {
        "encoding": "inplace",
        "label": "uint256",
        "numberOfBytes": "32"
      }
    }
  }
}